:020000040000fa
:080000000002040000000000f2
:020000040000fa
:1000080090020000900200009002000090020000a0
:100018009002000090020000900200009002000090
:100028009002000090020000900200009002000080
:100038009002000090020000900200009002000070
:020000040000fa
:020000040000fa
:100400000f8020000e7f22000e01880000000000f7
:100410000c000700c044200001002000110007006c
:10042000000020000000e000020032000000020096
:1004300000000000f8030200000000000040da00a5
:100440000000fe004440a900000020000000e00081
:100450000300320000002000a00188004440a800f2
:100460000000060091018800800078000000eb0089
:1004700015003700e280400032a0b4009101ba00bc
:10048000e280400032a0b4009102ba00e280400055
:1004900032a0b4000002eb00472bde00f507b200eb
:1004a000602ce10004003a000059eb008301e900f0
:1004b000fdff3e00040037006128e100010032002a
:1004c0000082eb00040007001101ba000200e00006
:1004d000e8ff3a00000006003159ba008301e90044
:1004e0000c0032002159ba008301e90008003200f3
:1004f0000400e00003003a00e280400032a0b400b3
:10050000f5ff370011d9ba008301e900faff3a007c
:100510008100e800e180400032a0b4000000060045
:080520000040da000000fe00bb
:020000040000fa
:100528000200fa00000f7800000e20000019880071
:100538000000eb001019880050f0210020198800f5
:100548001e007800401988000000eb008019880020
:10055800c682a800c6a2a8006019800060198000a1
:1005680021e3a8000080fa00000006000200fa005b
:10057800000f78001e007800401988002023a8008a
:10058800000000000019800061006000e00f5000ca
:10059800fcff32002003a900001880000080fa0048
:1005a800000006000200fa00000f78009e007800a4
:1005b80068806000e00f500001003200d2c2a8003d
:1005c8009e00780064806000e00f50000100320057
:1005d800d2e2a8009e00780062806000e00f500020
:1005e80001003200c0e2a8001e007800610060002f
:1005f80000407800e04f500001003200d3a2a8006c
:100608000080fa00000006000400fa0010079800b5
:100618001e0090006101b8000080eb008080eb00b4
:100628000200400083804800720020000300200080
:10063800820f5000838f58002d003e00006001009b
:100648002200370018003700290037000d00370056
:100658002700370026003700250037000000370044
:10066800a116800000042000808060001000200097
:10067800e08f5000010032000000eb00000f78000e
:100688001d003700a116800000082000808060004f
:1006980010002000e08f5000010032000000eb0045
:1006a800000f7800140037001116800000082000a1
:1006b8008080600010002000e08f500001003200b0
:1006c8000000eb00000f78000b003700a116800037
:1006d800000022008080600010002000e08f5000a1
:1006e800010032000000eb00000f78000200370024
:1006f8000000eb00000f78001e0078000080fa0070
:10070800000006000400fa00204798002e409000e0
:100718000080fb004300dd00000f78000200370076
:10072800000000001e0fe9001e007800e00f5000d6
:10073800fbff3a000080fa00000006000600fa00fd
:10074800200798002e0090000000e800010020001b
:10075800d21420000289b900020178006002b900b1
:100768008401780003014100d31420000300b8007d
:100778000101410082007800008fbe00008fbe009a
:1007880005003700000000000080eb008080eb00cf
:100798001e0f40005e9748001e00be00e00f50008c
:1007a800e08f5800f7ff3a000080fa0000000600ca
:1007b8000000fa000000eb001016880000f02f007f
:1007c800001688000080fa00000006000200fa0007
:1007d800000f7800f00f20001e006000101688003f
:1007e8000080fa00000006000400fa00f00f200064
:1007f80030168800eeff07001000200069ff070090
:100808004000200046ff07004000200057ff070077
:10081800000f78001e00780001002000a2142000bc
:100828000289b900020178006002b90084017800e9
:1008380003014100a31420000300b8000101410096
:100848008200780002802300f3ff2f00000041009f
:1008580081804900e00f5000e08f580002003d0001
:10086800f03fb0000180b0004609dd004a00de001c
:1008780000007100ca88de00100798001e00900072
:10088800d2ff0700803e2000acff0700deff3700e4
:020000040000fa
:04089800000000005c
:020000040000fa
:020000040002f8
:04aff8009efa0000bd
:020000040000fa
:020000040002f8
:04affc007f3f000093
:00000001FF
