:020000040000fa
:080000000002040000000000f2
:020000040000fa
:1000080038030000380300003803000038030000fc
:1000180038030000380300003803000038030000ec
:1000280038030000380300003803000038030000dc
:1000380038030000380300003803000038030000cc
:1000480038030000380300003803000038030000bc
:1000580038030000380300003803000038030000ac
:10006800380300003803000038030000380300009c
:100078009002000038030000380300003803000035
:10008800380300003803000038030000380300007c
:10009800380300003803000038030000380300006c
:1000a800380300003803000038030000380300005c
:1000b800380300003803000038030000380300004c
:1000c800380300003803000038030000380300003c
:1000d800380300003803000038030000380300002c
:1000e800380300003803000038030000380300001c
:1000f800380300003803000038030000380300000c
:1001080038030000380300003803000038030000fb
:1001180038030000380300003803000038030000eb
:1001280038030000380300003803000038030000db
:1001380038030000380300003803000038030000cb
:1001480038030000380300003803000038030000bb
:1001580038030000380300003803000038030000ab
:10016800380300003803000038030000380300009b
:10017800380300003803000038030000380300008b
:10018800380300003803000038030000380300007b
:10019800380300003803000038030000380300006b
:1001a800380300003803000038030000380300005b
:1001b800380300003803000038030000380300004b
:1001c800380300003803000038030000380300003b
:1001d800380300003803000038030000380300002b
:1001e800380300003803000038030000380300001b
:0801f800380300003803000089
:020000040000fa
:1002080038030000380300003803000038030000fa
:1002180038030000380300003803000038030000ea
:1002280038030000380300003803000038030000da
:1002380038030000380300003803000038030000ca
:1002480038030000380300003803000038030000ba
:1002580038030000380300003803000038030000aa
:10026800380300003803000038030000380300009a
:100278009002000038030000380300003803000033
:10028800380300003803000038030000380300007a
:10029800380300003803000038030000380300006a
:1002a800380300003803000038030000380300005a
:1002b800380300003803000038030000380300004a
:1002c800380300003803000038030000380300003a
:1002d800380300003803000038030000380300002a
:1002e800380300003803000038030000380300001a
:1002f800380300003803000038030000380300000a
:1003080038030000380300003803000038030000f9
:1003180038030000380300003803000038030000e9
:1003280038030000380300003803000038030000d9
:1003380038030000380300003803000038030000c9
:1003480038030000380300003803000038030000b9
:1003580038030000380300003803000038030000a9
:100368003803000038030000380300003803000099
:100378003803000038030000380300003803000089
:100388003803000038030000380300003803000079
:100398003803000038030000380300003803000069
:1003a8003803000038030000380300003803000059
:1003b8003803000038030000380300003803000049
:1003c8003803000038030000380300003803000039
:1003d8003803000038030000380300003803000029
:1003e8003803000038030000380300003803000019
:0803f800380300003803000087
:020000040000fa
:100400002f8320000e7f22000e01880000000000d4
:100410000c000700a0692000010020001100070067
:10042000000020000000e000020032000000020096
:100430000000000012030200000000000040da008b
:100440000000fe004440a900000020000000e00081
:100450000300320000002000a00188004440a800f2
:100460000000060091018800800078000000eb0089
:1004700015003700e280400032a0b4009101ba00bc
:10048000e280400032a0b4009102ba00e280400055
:1004900032a0b4000002eb00472bde00f507b200eb
:1004a000602ce10004003a000059eb008301e900f0
:1004b000fdff3e00040037006128e100010032002a
:1004c0000082eb00040007001101ba000200e00006
:1004d000e8ff3a00000006003159ba008301e90044
:1004e0000c0032002159ba008301e90008003200f3
:1004f0000400e00003003a00e280400032a0b400b3
:10050000f5ff370011d9ba008301e900faff3a007c
:100510008100e800e180400032a0b4000000060045
:10052000809fbe00829fbe003400f80000002000c3
:10053000a00188000000fa008680a9002ec8bf0034
:100540000040e8002ee8b700504180000100200084
:100550004200200003002000820f5000838f5800cb
:1005600021003e0000600100040037000b0037004e
:1005700020003700140037001e003700a11680004d
:100580000000240000806000e00f50001b003a00d3
:1005900010002000504188001d003700d116800057
:1005a0000020200000806000e00f500015003a009d
:1005b00020002000504188002ec8bf000040e80005
:1005c0002ee8b70012003700a116800000002400ba
:1005d00000806000e00f50000c003200400020005e
:1005e000504188000a003700500020005041880028
:1005f0000700370000000000050037000000000081
:100600000300370000000000010037000000000078
:100610000080fa003400f9004f01be004f00be0018
:10062000004006000000fa00b401070003000700c4
:1006300050418000b8010700fdff37000000fa00bc
:100640000000eb00a01688000000eb00d016880028
:10065000d3c2a800d902a800d922a8008220a800ed
:100660008680a9009680a8000080fa00000006009d
:080670000040da000000fe006a
:020000040000fa
:100678000200fa00000f78001e007800000c8800c5
:100688000080fa00000006000200fa00000f78005f
:100698001e007800600888000000eb00000c88004d
:1006a8000000eb00100c88008461a900210c800078
:1006b80080ff2f00008060006000b300200c8800dd
:1006c8001021a90010c1a90081088000f0fc2f00aa
:1006d800008060008008880011e1a8000080fa000e
:1006e800000006000a00fa00200798003107980069
:1006f80042079800000000002e009000e10f500013
:1007080007003200e20f500071003200e00f500085
:1007180072003a000000eb004007980071003700b3
:100728004e009000000f7800650037003e009000f2
:1007380090407800214798003e0090000000e800b3
:10074800300798002e4090000000fb006101b900be
:1007580080ff2f00f1ff2f00020040008380480037
:100768005200200003002000820f5000838f5800a1
:100778004b003e00006001002200370011003700e6
:1007880003003700170037004000370037003700f4
:100798000183200091407800f0c8b30080cf50005a
:1007a80003003e0000ccb30030e8b7000200370079
:1007b80000c8b30030e8b70030c8bf004c000700dd
:1007c8003e00370030c8bf00e4404000c0ccb30052
:1007d80000c0600030e8b70030c8bf004400070020
:1007e80036003700018320009140780000c4b30030
:1007f80000c0680030e8b70030c8bf003c00070000
:100808002e003700018320009140780000c8b30013
:1008180080cf500003003a0000c8b30030e8b700aa
:100828000b003700018320009140780000ccb30012
:1008380080cf500003003a0000ccb30030e8b70086
:100848000300370030c8bf000040e90030e8b700b7
:1008580030c8bf002600070000c2b3003c000700f4
:1008680030c8bf00220007001400370001832000b1
:100878009140780000cfb30000c0600030e8b700b6
:1008880030c8bf001a0007000c00370010c0b300c2
:100898001700070000c8b30030e8b70007003700aa
:1008a80030c8bf008040e800f0ccb30000c0600052
:1008b80030e8b7002e409000250007001e0fe90021
:1008c8001e007800e00f500098ff3c00050037003c
:1008d8000000eb0040079800020037000000eb0022
:1008e800400798004e0090000080fa0000000600c3
:1008f8000200fa00004f78009e4078000180fb005b
:100908000000e900e10f500008003e000000eb0085
:10091800203088009e4078000180fb00403088002d
:1009280020002000d6000700070037000000eb0079
:10093800203088009e4078000180fb00403088000d
:1009480050c0b300c00007000080fa000000060095
:100958000200fa00004f78001000200020308800c4
:100968009e4078000180fb004030880050c0b300f2
:10097800b50007000080fa00000006000200fa0037
:10098800004f780040062000bd0007000000eb0083
:1009980020308800c00320004030880050c0b300d9
:1009a800a90007009e4078006cc070000080fb0022
:1009b8004030880050c0b300a3000700100020009a
:1009c8004030880020002000ad00070060002000b3
:1009d8004030880020002000a90007000080fa00ad
:1009e800000006000000fa0001e6a80001a6a80021
:1009f80001308000f07f2e00008060000030880009
:100a08000126a8000106a8000026a8000006a800e4
:100a18001130800000302000008070001030880005
:100a280011308000f0f32f00008060001030880043
:100a38001130800030fc2f00008060000030a000e2
:100a48001030880011308000c0ff2f000080600047
:100a5800103088000c06a8000080fa00000006008c
:100a68000200fa00000f7800000e2000001988002c
:100a78000000eb001019880050f0210020198800b0
:100a88001e007800401988000000eb0080198800db
:100a9800c662a800c682a800c6a2a8002ca3a90006
:100aa8002c83a90021e3a8000080fa0000000600ba
:100ab8000200fa00000f78001e0078004019880034
:100ac8002023a800000000000019800061006000d9
:100ad800e00f5000fcff32002003a900001880003e
:100ae8000080fa00000006000200fa00000f7800fb
:100af8009e00780068806000e00f5000010032001e
:100b0800d2c2a8009e00780064806000e00f500008
:100b180001003200d2e2a8009e00780062806000e6
:100b2800e00f500001003200c0e2a8001e0078006b
:100b38006100600000407800e04f50000100320082
:100b4800d3a2a8000080fa00000006000400fa0002
:100b5800100798001e0090006101b8000080eb00ab
:100b68008080eb0002004000838048007200200073
:100b780003002000820f5000838f58002d003e0094
:100b880000600100220037001800370029003700f4
:100b98000d003700270037002600370025003700f2
:100ba80000003700a116800000042000808060004b
:100bb80010002000e08f5000010032000000eb0020
:100bc800000f78001d003700a116800000082000e3
:100bd8008080600010002000e08f5000010032008b
:100be8000000eb00000f7800140037001116800099
:100bf800000820008080600010002000e08f500076
:100c0800010032000000eb00000f78000b003700f5
:100c1800a1168000000022008080600010002000e3
:100c2800e08f5000010032000000eb00000f780058
:100c3800020037000000eb00000f78001e0078006b
:100c48000080fa00000006000400fa00204798001f
:100c58002e4090000080fb004300dd00000f78006c
:100c680002003700000000001e0fe9001e00780097
:100c7800e00f5000fbff3a000080fa000000060079
:100c88000600fa00200798002e0090000000e800f7
:100c980001002000d21420000289b9000201780066
:100ca8006002b9008401780003014100d3142000d8
:100cb8000300b8000101410082007800008fbe00e7
:100cc800008fbe0005003700000000000080eb0028
:100cd8008080eb001e0f40005e9748001e00be009b
:100ce800e00f5000e08f5800f7ff3a000080fa004c
:100cf800000006000000fa000000eb001016880053
:100d080000f02f00001688000080fa00000006009e
:100d18000200fa00000f7800f00f20001e006000ab
:0c0d2800101688000080fa000000060091
:020000040000fa
:100d34002a08000006000000020000000000000075
:100d440000000000000800002a000000000000006d
:100d540030080000020000000200000080000000d3
:040d6400000000008b
:00000001FF
