:020000040000fa
:080000000002040000000000f2
:020000040000fa
:10000800300300003003000030030000300300001c
:10001800300300003003000030030000300300000c
:1000280030030000300300003003000030030000fc
:1000380030030000300300003003000030030000ec
:1000480030030000300300003003000030030000dc
:1000580030030000300300003003000030030000cc
:1000680030030000300300003003000030030000bc
:100078009402000030030000300300003003000049
:10008800300300003003000030030000300300009c
:10009800300300003003000030030000300300008c
:1000a800300300003003000030030000300300007c
:1000b800300300003003000030030000300300006c
:1000c800300300003003000030030000300300005c
:1000d800300300003003000030030000300300004c
:1000e800300300003003000030030000300300003c
:1000f800300300003003000030030000300300002c
:10010800300300003003000030030000300300001b
:10011800300300003003000030030000300300000b
:1001280030030000300300003003000030030000fb
:1001380030030000300300003003000030030000eb
:1001480030030000300300003003000030030000db
:1001580030030000300300003003000030030000cb
:1001680030030000300300003003000030030000bb
:1001780030030000300300003003000030030000ab
:10018800300300003003000030030000300300009b
:10019800300300003003000030030000300300008b
:1001a800300300003003000030030000300300007b
:1001b800300300003003000030030000300300006b
:1001c800300300003003000030030000300300005b
:1001d800300300003003000030030000300300004b
:1001e800300300003003000030030000300300003b
:0801f800300300003003000099
:020000040000fa
:10020800300300003003000030030000300300001a
:10021800300300003003000030030000300300000a
:1002280030030000300300003003000030030000fa
:1002380030030000300300003003000030030000ea
:1002480030030000300300003003000030030000da
:1002580030030000300300003003000030030000ca
:1002680030030000300300003003000030030000ba
:100278009402000030030000300300003003000047
:10028800300300003003000030030000300300009a
:10029800300300003003000030030000300300008a
:1002a800300300003003000030030000300300007a
:1002b800300300003003000030030000300300006a
:1002c800300300003003000030030000300300005a
:1002d800300300003003000030030000300300004a
:1002e800300300003003000030030000300300003a
:1002f800300300003003000030030000300300002a
:100308003003000030030000300300003003000019
:100318003003000030030000300300003003000009
:1003280030030000300300003003000030030000f9
:1003380030030000300300003003000030030000e9
:1003480030030000300300003003000030030000d9
:1003580030030000300300003003000030030000c9
:1003680030030000300300003003000030030000b9
:1003780030030000300300003003000030030000a9
:100388003003000030030000300300003003000099
:100398003003000030030000300300003003000089
:1003a8003003000030030000300300003003000079
:1003b8003003000030030000300300003003000069
:1003c8003003000030030000300300003003000059
:1003d8003003000030030000300300003003000049
:1003e8003003000030030000300300003003000039
:0803f800300300003003000097
:020000040000fa
:100400008f8020000e7f22000e0188000000000077
:100410000c000700804920000100200011000700a7
:10042000000020000000e000020032000000020096
:100430000000000008030200000000000040da0095
:100440000000fe004440a900000020000000e00081
:100450000300320000002000a00188004440a800f2
:100460000000060091018800800078000000eb0089
:1004700015003700e280400032a0b4009101ba00bc
:10048000e280400032a0b4009102ba00e280400055
:1004900032a0b4000002eb00472bde00f507b200eb
:1004a000602ce10004003a000059eb008301e900f0
:1004b000fdff3e00040037006128e100010032002a
:1004c0000082eb00040007001101ba000200e00006
:1004d000e8ff3a00000006003159ba008301e90044
:1004e0000c0032002159ba008301e90008003200f3
:1004f0000400e00003003a00e280400032a0b400b3
:10050000f5ff370011d9ba008301e900faff3a007c
:100510008100e800e180400032a0b4000000060045
:100520001603040000000000809fbe00829fbe00f2
:100530000000fa008680a900304080000100200001
:100540004200200003002000820f5000838f5800db
:1005500021003e0000600100040037000b0037005e
:1005600020003700140037001e003700a11680005d
:100570000000240000806000e00f50001b003a00e3
:1005800010002000304088001d003700d116800088
:100590000020200000806000e00f500015003a00ad
:1005a0002000200030408800204080000000e8004b
:1005b0002040880012003700a116800000002400af
:1005c00000806000e00f50000c003200400020006e
:1005d000304088000a00370050002000304088007a
:1005e0000700370000000000050037000000000091
:1005f0000300370000000000010037000000000089
:100600000080fa004f01be004f00be00004006000f
:100610000000fa00b800070060312000000001006f
:1006200010408000bb000700fdff37000000fa000b
:100630000000eb00a01688000000eb00d016880038
:10064000d3c2a800d902a800d922a8008220a800fd
:100650008680a9009680a8000080fa0000000600ad
:080660000040da000000fe007a
:020000040000fa
:100668000200fa00000f7800000e20000019880030
:100678000000eb001019880050f0210020198800b4
:100688001e007800401988000000eb0080198800df
:10069800c682a800c6a2a800601980006019800060
:1006a80021e3a8000080fa00000006000200fa001a
:1006b800000f78001e007800401988002023a80049
:1006c800000000000019800061006000e00f500089
:1006d800fcff32002003a900001880000080fa0007
:1006e800000006000200fa00000f78009e00780063
:1006f80068806000e00f500001003200d2c2a800fc
:100708009e00780064806000e00f50000100320015
:10071800d2e2a8009e00780062806000e00f5000de
:1007280001003200c0e2a8001e00780061006000ed
:1007380000407800e04f500001003200d3a2a8002a
:100748000080fa00000006000400fa001007980074
:100758001e0090006101b8000080eb008080eb0073
:10076800020040008380480072002000030020003f
:10077800820f5000838f58002d003e00006001005a
:100788002200370018003700290037000d00370015
:100798002700370026003700250037000000370003
:1007a800a116800000042000808060001000200056
:1007b800e08f5000010032000000eb00000f7800cd
:1007c8001d003700a116800000082000808060000e
:1007d80010002000e08f5000010032000000eb0004
:1007e800000f780014003700111680000008200060
:1007f8008080600010002000e08f5000010032006f
:100808000000eb00000f78000b003700a1168000f5
:10081800000022008080600010002000e08f50005f
:10082800010032000000eb00000f780002003700e2
:100838000000eb00000f78001e0078000080fa002e
:10084800000006000400fa00204798002e4090009f
:100858000080fb004300dd00000f78000200370035
:10086800000000001e0fe9001e007800e00f500095
:10087800fbff3a000080fa00000006000600fa00bc
:10088800200798002e0090000000e80001002000da
:10089800d21420000289b900020178006002b90070
:1008a8008401780003014100d31420000300b8003c
:1008b8000101410082007800008fbe00008fbe0059
:1008c80005003700000000000080eb008080eb008e
:1008d8001e0f40005e9748001e00be00e00f50004b
:1008e800e08f5800f7ff3a000080fa000000060089
:1008f8000000fa000000eb001016880000f02f003e
:10090800001688000080fa00000006000200fa00c5
:10091800000f7800f00f20001e00600010168800fd
:080928000080fa000000060047
:020000040000fa
:1009300000080000060000000200000000000000a7
:100940000000000006080000020000000000000097
:0409500000000000a3
:020000040000fa
:020000040002f8
:04aff8009efa0000bd
:020000040000fa
:020000040002f8
:04affc007f3f000093
:00000001FF
