:020000040000fa
:080000000002040000000000f2
:020000040000fa
:1000080090020000900200009002000090020000a0
:100018009002000090020000900200009002000090
:100028009002000090020000900200009002000080
:100038009002000090020000900200009002000070
:020000040000fa
:020000040000fa
:100400000f8020000e7f22000e01880000000000f7
:100410000c000700403d20000100200011000700f3
:10042000000020000000e000020032000000020096
:10043000000000009e030200000000000040da00ff
:100440000000fe004440a900000020000000e00081
:100450000300320000002000a00188004440a800f2
:100460000000060091018800800078000000eb0089
:1004700015003700e280400032a0b4009101ba00bc
:10048000e280400032a0b4009102ba00e280400055
:1004900032a0b4000002eb00472bde00f507b200eb
:1004a000602ce10004003a000059eb008301e900f0
:1004b000fdff3e00040037006128e100010032002a
:1004c0000082eb00040007001101ba000200e00006
:1004d000e8ff3a00000006003159ba008301e90044
:1004e0000c0032002159ba008301e90008003200f3
:1004f0000400e00003003a00e280400032a0b400b3
:10050000f5ff370011d9ba008301e900faff3a007c
:100510008100e800e180400032a0b4000000060045
:080520000040da000000fe00bb
:020000040000fa
:100528000000fa000000eb001016880000f82f0009
:10053800001688000080fa00000006000200fa0099
:10054800000f78009e00780068806000e00f50007f
:1005580001003200d2c2a8009e00780064806000ca
:10056800e00f500001003200d2e2a8009e0078009f
:1005780062806000e00f500001003200c0e2a80075
:100588001e0078006100600000407800e04f5000d5
:1005980001003200d3a2a8000080fa000000060083
:1005a8000400fa00100798001e0090006101b800ce
:1005b8000080eb008080eb00020040008380480050
:1005c8007200200003002000820f5000838f580023
:1005d8002e003e000060010023003700180037009d
:1005e8002a0037000d0037002800370027003700a1
:1005f8002600370000003700a11680000004200004
:100608008080600010002000e08f50000100320060
:100618000000eb00000f78001e003700a1168000d4
:10062800000820008080600010002000e08f50004b
:10063800010032000000eb00000f780015003700c1
:10064800c0e2a80011168000000820008080600029
:1006580010002000e08f5000010032000000eb0085
:10066800000f78000b003700a11680000000220060
:100678008080600010002000e08f500001003200f0
:100688000000eb00000f7800020037000000eb00cc
:10069800000f78001e0078000080fa0000000600b5
:1006a8000200fa00000f7800c0e2a900f00f200055
:1006b8001e006000101688000080fa000000060086
:1006c8000600fa00200798002e0090000000e800bd
:1006d80001002000421320000289b90002017800bd
:1006e8006002b9008401780003014100431320002f
:1006f8000300b8000101410082007800008fbe00ad
:10070800008fbe0005003700000000000080eb00ed
:100718008080eb001e0f40005e9748001e00be0060
:10072800e00f5000e08f5800f7ff3a000080fa0011
:10073800000006000200fa000040eb00004f7800bd
:10074800900020007dff070075ff070000000000f3
:100758009e4078000180fb00d1ff0700803e20000a
:10076800d7ff0700100020008dff0700e00f5000a2
:10077800020032001e4fe800f4ff3700800020001e
:1007880087ff0700e00f5000030032000040eb0035
:10079800004f7800edff37001e4fe900ebff3700f0
:020000040000fa
:0407a800000000004d
:00000001FF
