:020000040000fa
:080000000002040000000000f2
:020000040000fa
:1000080090020000900200009002000090020000a0
:100018009002000090020000900200009002000090
:100028009002000090020000900200009002000080
:100038009002000090020000900200009002000070
:020000040000fa
:020000040000fa
:100400000f8020000e7f22000e01880000000000f7
:100410000c000700204f2000010020001100070001
:10042000000020000000e000020032000000020096
:1004300000000000a8040200000000000040da00f4
:100440000000fe004440a900000020000000e00081
:100450000300320000002000a00188004440a800f2
:100460000000060091018800800078000000eb0089
:1004700015003700e280400032a0b4009101ba00bc
:10048000e280400032a0b4009102ba00e280400055
:1004900032a0b4000002eb00472bde00f507b200eb
:1004a000602ce10004003a000059eb008301e900f0
:1004b000fdff3e00040037006128e100010032002a
:1004c0000082eb00040007001101ba000200e00006
:1004d000e8ff3a00000006003159ba008301e90044
:1004e0000c0032002159ba008301e90008003200f3
:1004f0000400e00003003a00e280400032a0b400b3
:10050000f5ff370011d9ba008301e900faff3a007c
:100510008100e800e180400032a0b4000000060045
:080520000040da000000fe00bb
:020000040000fa
:100528000200fa00000f7800000e20000019880071
:100538000000eb001019880050f0210020198800f5
:100548001e007800401988000000eb008019880020
:10055800c682a800c6a2a8006019800060198000a1
:1005680021e3a8000080fa00000006000200fa005b
:10057800000f78001e007800401988002023a8008a
:10058800000000000019800061006000e00f5000ca
:10059800fcff32002003a900001880000080fa0048
:1005a800000006000200fa00000f78009e007800a4
:1005b80068806000e00f500001003200d2c2a8003d
:1005c8009e00780064806000e00f50000100320057
:1005d800d2e2a8009e00780062806000e00f500020
:1005e80001003200c0e2a8001e007800610060002f
:1005f80000407800e04f500001003200d3a2a8006c
:100608000080fa00000006000400fa0010079800b5
:100618001e0090006101b8000080eb008080eb00b4
:100628000200400083804800720020000300200080
:10063800820f5000838f58002d003e00006001009b
:100648002200370018003700290037000d00370056
:100658002700370026003700250037000000370044
:10066800a116800000042000808060001000200097
:10067800e08f5000010032000000eb00000f78000e
:100688001d003700a116800000082000808060004f
:1006980010002000e08f5000010032000000eb0045
:1006a800000f7800140037001116800000082000a1
:1006b8008080600010002000e08f500001003200b0
:1006c8000000eb00000f78000b003700a116800037
:1006d800000022008080600010002000e08f5000a1
:1006e800010032000000eb00000f78000200370024
:1006f8000000eb00000f78001e0078000080fa0070
:10070800000006000400fa00204798002e409000e0
:100718000080fb004300dd00000f78000200370076
:10072800000000001e0fe9001e007800e00f5000d6
:10073800fbff3a000080fa00000006000600fa00fd
:10074800200798002e0090000000e800010020001b
:10075800d21420000289b900020178006002b900b1
:100768008401780003014100d31420000300b8007d
:100778000101410082007800008fbe00008fbe009a
:1007880005003700000000000080eb008080eb00cf
:100798001e0f40005e9748001e00be00e00f50008c
:1007a800e08f5800f7ff3a000080fa0000000600ca
:1007b8000000fa000000eb001016880000f02f007f
:1007c800001688000080fa00000006000200fa0007
:1007d800000f7800f00f20001e006000101688003f
:1007e8000080fa00000006000000fa0001e6a800f8
:1007f80001a6a80001308000f07f2e000080600074
:10080800003088000126a8000106a8000026a800dc
:100818000006a80011308000003020000080700021
:100828001030880011308000f0f32f000080600045
:10083800103088001130800030fc2f0000806000ec
:100848000030a0001030880011308000c0ff2f0059
:1008580000806000103088000c06a8000080fa00b4
:10086800000006000200fa00004f78004006200051
:10087800b2ff07000000eb0020308800c003200012
:100888004030880050c0b3009eff07009e407800ab
:100898006cc070000080fb004030880050c0b3007e
:1008a80098ff07001000200040308800200020003a
:1008b800a2ff0700600020004030880020002000d0
:1008c8009eff07000080fa00000006000200fa0000
:1008d800004f78001e00fb000000e900e10f500007
:1008e80007003e000000eb00203088001e00fb00df
:1008f800403088002000200090ff070006003700e5
:100908000000eb00203088001e00fb00403088000b
:1009180050c0b3007bff07000080fa00000006000b
:100928000200fa00004f78001000200020308800f4
:100938001e00fb004030880050c0b30071ff070064
:100948000080fa00000006000000fa00a6ff070079
:1009580010002000ddff070020002000dbff07005b
:1009680020002000bfff070030022000ecff070036
:1009780090052000eaff0700f0042000e8ff0700c8
:10098800c0042000e6ff0700f0042000e4ff070091
:1009980000022000e2ff070030052000e0ff07000a
:1009a80070052000deff070010042000dcff0700b0
:1009b80070042000daff0700803e20005fff070078
:1009c80010002000c1ff0700401f20005bff070048
:0c09d80020002000bdff0700e3ff3700f7
:020000040000fa
:0409e400000000000f
:00000001FF
